{
  "_format": "hh-sol-artifact-1",
  "contractName": "Lock",
  "sourceName": "contracts/Lock.sol",
  "abi": [
    {
      "inputs": [],
      "stateMutability": "payable",
      "type": "constructor"
    },
    {
      "anonymous": false,
      "inputs": [
        {
          "indexed": true,
          "internalType": "address",
          "name": "recipient",
          "type": "address"
        },
        {
          "indexed": false,
          "internalType": "uint256",
          "name": "amount",
          "type": "uint256"
        }
      ],
      "name": "TipSent",
      "type": "event"
    },
    {
      "inputs": [],
      "name": "getBalance",
      "outputs": [
        {
          "internalType": "uint256",
          "name": "",
          "type": "uint256"
        }
      ],
      "stateMutability": "view",
      "type": "function"
    },
    {
      "inputs": [
        {
          "internalType": "address payable",
          "name": "recipient",
          "type": "address"
        }
      ],
      "name": "sendTip",
      "outputs": [],
      "stateMutability": "payable",
      "type": "function"
    }
  ],
  "bytecode": "0x60806040526103af806100136000396000f3fe6080604052600436106100295760003560e01c806312065fe01461002e578063a4e81be014610059575b600080fd5b34801561003a57600080fd5b50610043610075565b60405161005091906101e5565b60405180910390f35b610073600480360381019061006e9190610263565b610082565b005b6000804790508091505090565b600034116100c5576040517f08c379a00000000000000000000000000000000000000000000000000000000081526004016100bc906102ed565b60405180910390fd5b600073ffffffffffffffffffffffffffffffffffffffff168173ffffffffffffffffffffffffffffffffffffffff1603610134576040517f08c379a000000000000000000000000000000000000000000000000000000000815260040161012b90610359565b60405180910390fd5b8073ffffffffffffffffffffffffffffffffffffffff166108fc349081150290604051600060405180830381858888f1935050505015801561017a573d6000803e3d6000fd5b508073ffffffffffffffffffffffffffffffffffffffff167f171011172a05babdafffeb4c3cb97a07f0e1e7a0538eab4f4331336fb76fef05346040516101c191906101e5565b60405180910390a250565b6000819050919050565b6101df816101cc565b82525050565b60006020820190506101fa60008301846101d6565b92915050565b600080fd5b600073ffffffffffffffffffffffffffffffffffffffff82169050919050565b600061023082610205565b9050919050565b61024081610225565b811461024b57600080fd5b50565b60008135905061025d81610237565b92915050565b60006020828403121561027957610278610200565b5b60006102878482850161024e565b91505092915050565b600082825260208201905092915050565b7f53656e64206120706f73697469766520616d6f756e7400000000000000000000600082015250565b60006102d7601683610290565b91506102e2826102a1565b602082019050919050565b60006020820190508181036000830152610306816102ca565b9050919050565b7f496e76616c696420726563697069656e74000000000000000000000000000000600082015250565b6000610343601183610290565b915061034e8261030d565b602082019050919050565b6000602082019050818103600083015261037281610336565b905091905056fea2646970667358221220cb93f67ea94f193b0d5e6ca7e3221ecf140209e8a90ea58d7c96f94b151a703264736f6c634300081b0033",
  "linkReferences": {},
  "deployedLinkReferences": {}
}