{
  "_format": "hh-sol-artifact-1",
  "contractName": "Lock",
  "sourceName": "contracts/Lock.sol",
  "abi": [
    {
      "inputs": [],
      "stateMutability": "payable",
      "type": "constructor"
    },
    {
      "anonymous": false,
      "inputs": [
        {
          "indexed": true,
          "internalType": "address",
          "name": "recipient",
          "type": "address"
        },
        {
          "indexed": false,
          "internalType": "uint256",
          "name": "amount",
          "type": "uint256"
        }
      ],
      "name": "TipSent",
      "type": "event"
    },
    {
      "inputs": [],
      "name": "getBalance",
      "outputs": [
        {
          "internalType": "uint256",
          "name": "",
          "type": "uint256"
        }
      ],
      "stateMutability": "view",
      "type": "function"
    },
    {
      "inputs": [
        {
          "internalType": "address payable",
          "name": "recipient",
          "type": "address"
        }
      ],
      "name": "sendTip",
      "outputs": [],
      "stateMutability": "payable",
      "type": "function"
    }
  ],
  "bytecode": "0x60806040526103aa806100136000396000f3fe6080604052600436106100295760003560e01c806312065fe01461002e578063a4e81be014610059575b600080fd5b34801561003a57600080fd5b50610043610075565b60405161005091906101e0565b60405180910390f35b610073600480360381019061006e919061025e565b61007d565b005b600047905090565b600034116100c0576040517f08c379a00000000000000000000000000000000000000000000000000000000081526004016100b7906102e8565b60405180910390fd5b600073ffffffffffffffffffffffffffffffffffffffff168173ffffffffffffffffffffffffffffffffffffffff160361012f576040517f08c379a000000000000000000000000000000000000000000000000000000000815260040161012690610354565b60405180910390fd5b8073ffffffffffffffffffffffffffffffffffffffff166108fc349081150290604051600060405180830381858888f19350505050158015610175573d6000803e3d6000fd5b508073ffffffffffffffffffffffffffffffffffffffff167f171011172a05babdafffeb4c3cb97a07f0e1e7a0538eab4f4331336fb76fef05346040516101bc91906101e0565b60405180910390a250565b6000819050919050565b6101da816101c7565b82525050565b60006020820190506101f560008301846101d1565b92915050565b600080fd5b600073ffffffffffffffffffffffffffffffffffffffff82169050919050565b600061022b82610200565b9050919050565b61023b81610220565b811461024657600080fd5b50565b60008135905061025881610232565b92915050565b600060208284031215610274576102736101fb565b5b600061028284828501610249565b91505092915050565b600082825260208201905092915050565b7f53656e64206120706f73697469766520616d6f756e7400000000000000000000600082015250565b60006102d260168361028b565b91506102dd8261029c565b602082019050919050565b60006020820190508181036000830152610301816102c5565b9050919050565b7f496e76616c696420726563697069656e74000000000000000000000000000000600082015250565b600061033e60118361028b565b915061034982610308565b602082019050919050565b6000602082019050818103600083015261036d81610331565b905091905056fea2646970667358221220a95164c9c8350b3bb4bee356d1c7e8bea2767113ef555e26ca289fd7c21a9c3764736f6c634300081b0033",
  "linkReferences": {},
  "deployedLinkReferences": {}
}